:100000000815FE1F791E0000251D0000751E00004A
:10001000751E0000751E0000751E0000751E000094
:10002000000000000000000000000000751E00003D
:10003000751E000000000000751E0000751E000007
:10004000611700009D180000891900004D1A00007A
:1000500000000000000000000000000000000000A0
:100060000000000000000000000000000000000090
:100070000000000000000000000000000000000080
:100080000000000000000000000000000000000070
:10040000FFFFFFFFFFFDFFFFFCFFFFFFFFFFFFFF01
:10041000FCFFFFFFFFFFFFFFFCFFFF00FFFFFF00F0
:10042000FCFF0F20FFFF0F20FCFF7F40FFFF7F40FE
:10043000FCFF0D40FFFF0D40FFFFFFFFFFFFFFFF31
:10044000FFFFFFFFFFFFFFFFFFFFFFFFFFFFFFFFBC
:10045000FFFFFFFFFFFFFFFFFFFFFFFFFFFFFFFFAC
:10046000FFFFFFFFFFFFFFFFFFFFFFFFFFFFFFFF9C
:10047000FFFFFFFFFFFFFFFFFFFFFFFFFFFFFFFF8C
:10048000FFFFFFFFFFFFFFFFFFFFFFFFFFFFFFFF7C
:10049000FFFFFFFFFFFFFFFFFFFFFFFFFFFFFFFF6C
:1004A000FFFFFFFFFFFFFFFFFFFFFFFFFFFFFFFF5C
:1004B000FFFFFFFFFFFFFFFFFFFFFFFFFFFFFFFF4C
:1004C000FFFFFFFFFFFFFFFFFFFFFFFFFFFFFFFF3C
:1004D000FFFFFFFFFFFFFFFFFFFFFFFFFFFFFFFF2C
:1004E000FFFFFFFFFFFFFFFFFFFFFFFFFFFFFFFF1C
:1004F000FFFFFFFFFFFFFFFFFFFFFFFFFFFFFFFF0C
:1005000010B5054C237833B9044B13B10448AFF34D
:1005100000800123237010BDF001FE1F00000000C9
:100520007054000008B5034B1BB103490348AFF3F7
:10053000008008BD00000000F401FE1F70540000A0
:100540002DE9F843C568D0F80890A9EB0508904557
:100550000446164609D94068284402F0A1F9BFF3C1
:100560005F8F3544E560BDE8F88340682844354432
:100570000F464246A5EB090502F092F960682A464B
:1005800007EB080102F08CF9BFF35F8FE560BDE86F
:10059000F88300BF2DE9F8430646D0E902048946F6
:1005A00017464FF0000833699C42A0EB040503F1A5
:1005B000FF3224BF03F1FF321218BD4228BF3D466F
:1005C000121B9542706828BF1546494620442A46AA
:1005D00002F066F9B0682C44A844A9447F1BA042ED
:1005E00008BF0024BFF35F8FF460002FDBD14046CB
:1005F000BDE8F88310B5164CA8220021204602F071
:100600005DF903212161134A61611348A2614FF42E
:100610000061E061002321621048A362102163623F
:10062000E36222666066A1662367E3666367BFF3E1
:100630005F8F0B4B5321A3F10F0C184601E013F908
:100640000119C21A6345A154F9D1BFF35F8F10BDE0
:100650000C02FE1F7C4D0000C402FE1FB402FE1FF0
:10066000964D000038B5204B00EB400403EBC40E60
:100670000130DEF82C4000EB4000012C8C46154682
:1006800003EBC00005D0022C29D0ACB100242046D9
:1006900038BDDEF82830DEF8242093429CBFDEF817
:1006A00020401B19013B9C1AAC4228BF2C46224615
:1006B000FFF746FF204638BDDEF82830DEF824205C
:1006C00093429CBFDEF820105B18013B9B1A9D42B1
:1006D000DDD82A466146FFF733FF2C46D7E7BDE851
:1006E0003840FFF757BF00BF0C02FE1F30B50C4B60
:1006F0001B78532B83B00C4605D0CDE90002FFF7E1
:1007000079FFDDE90002EFF311854FF0200181F35D
:1007100011882146FFF7A6FF85F3118803B030BD8D
:100720000C02FE1FD0E9012310B50446581C90426C
:1007300007D82268D154E3686268A0600133E3609F
:1007400003469A4200D010BD21682069FFF7CEFF12
:10075000A368984215BF4FF0FF330023E360A36006
:1007600010BD00BF2DE9F84F1546A942DDF82890CD
:100770000B9A0F4683461E4661D30B464FF0010885
:10078000B3FBF5F39D4208F10108F9D9B04538BF34
:10079000B04612F0010A02D1B9F1000F36D1DBF8F0
:1007A0000C30002B30DB012402E0013E05FB04F499
:1007B000012EFAD8B7FBF4F39D42F7D9214E06E09B
:1007C000AC42B4FBF5F30CD31C46B7FBF3F3F15684
:1007D000584604FB1377FFF7A5FFDBF80C30002B1E
:1007E000EEDABAF1000F0FD0B9F1000F0CD0C84506
:1007F0004FF02001584609F1FF3905D2FFF792FF6B
:10080000DBF80C30002BEFDABDE8F88F930711D43A
:1008100020240AE0FFF786FFDBF80C30002B09F1FB
:10082000FF39F1DBB9F1000FBDD0C845214658466C
:10083000F0D3B4E7002E0CBF30242024F5E74FF0AE
:100840000108A3E79C4D00002DE9F04F9BB0402329
:100850000DF1280ACDE905A30023CDE90830DFF822
:10086000CC92079380460D46174605E005A8FFF792
:1008700059FF0898002867DB15F9011B002966D08D
:100880002529F3D1294600260D4611F9013BA3F194
:1008900023020D2A08D8DFE802F0490707070707F7
:1008A000070746074C070743A3F13002D2B2092AD3
:1008B0004FF000040CD804EB840403EB440415F956
:1008C000013FA3F13002D2B2092AA4F13004F2D9D7
:1008D0002E2B00F0D28095F90010002301E015F9CD
:1008E000011F21F00402682AF9D0252924D05839A3
:1008F000CAB2202A23D8202921D8DFE801F03320EA
:10090000202020202020202020B460202020202013
:1009100020202020202052202042203F2020330071
:1009200046F00206B0E746F00406ADE746F00806DA
:10093000AAE746F00106A7E705A8FFF7F3FE089827
:10094000002805F1010597DA1BB0BDE8F08F089883
:100950000028F9DD079A002A40F0A98010441BB056
:10096000BDE8F08F3868102201680430CDE90046F8
:10097000386005A8FFF7F6FE0898E1E738680A2214
:10098000F2E73B681A1D3A601C6804E0FFF7CAFEF4
:1009900008980028D4DB14F9011B05A80029F5D11B
:1009A000CDE73A68116804323A60082300220192C8
:1009B00005A800931022FFF7D5FE0898C0E73A6813
:1009C000D2F800B004323A608BEAEB72A2EBEB7221
:1009D000092A4FF0010008DD11466329A9FB02C274
:1009E00000F101004FEAD202F6DC9842024638BF1D
:1009F0001A46039284B3BBF1000F60DB72075ED42A
:100A0000B00700D543B3F10726D42CB3039AA24212
:100A10004FF0200105A81FD20293FFF783FEDDF8F7
:100A200020C0BCF1000F04F1FF34604688DB029B5C
:100A3000002CEBD1BBF1000F43DB720751D406F061
:100A40000301022954D005A8CDE9004659460A22DF
:100A5000FFF788FE089873E7DDF820C0BCF1000FAF
:100A60006046E7DA6CE73B681A1D05A893F90010A9
:100A70003A60FFF757FE089862E795F90110A1F177
:100A80003003DBB2092B05F101054FF000033FF6FF
:100A900028AF03EB830301EB430315F9011FA1F119
:100AA0003002D2B2092AA3F13003F2D919E7514634
:100AB0004046FFF71BFEDDE9072010444FE7013CED
:100AC0009EE72D2105A80293FFF72CFE029BCBF198
:100AD000000BDDF820C0BCF1000F6046FFF630AF20
:100AE000ADE72B2105A80293FFF71CFE029BF0E760
:100AF000002BA8D1C4B1039AA2424FF0300105A83F
:100B00000DD20293FFF70EFEDDF820C0BCF1000FFE
:100B100004F1FF346046FFF613AF029BEAE760463C
:100B20000028FFF60DAF8EE700248CE7CDCCCCCCAF
:100B30000EB400B582B003AB01AA53F8041B0193B5
:100B4000FFF782FE02B05DF804EB03B0704700BF10
:100B50002DE9F04F2DED048B17491848184D9FB023
:100B600000F0FCFC752100238DF8221013482B7037
:100B700001220DF1220100F0FBFB2B78032BFCD1AD
:100B800010490E480023012200F0C2FB2B78022BF3
:100B9000DEB2FBD10B4C0C4922780020FFF7C8FFD6
:100BA000064800F04DFD2378682B0FD01FB0BDEC38
:100BB000048BBDE8F08F00BF444E0000E40AFE1F26
:100BC000D80AFE1FC40AFE1FAC4D0000C049C14830
:100BD00000F0C4FC6B2100232180BE482B703246FC
:100BE000214600F0C5FB2B78032BFCD1B94800F05F
:100BF00027FDB749B74800F0B1FC40F21972002355
:100C00002280B549B3482B70022200F0B1FB2B784B
:100C1000032BFCD1AF4800F013FDAD49AD4800F007
:100C20009DFC41F61C0200232280AB49A9482B7091
:100C3000022200F09DFB2B78032BFCD1A54800F08D
:100C4000FFFCA349A34800F089FC41F61B020023E6
:100C50002280A1499F482B70022200F089FB2B784B
:100C6000032BFCD19B48DFF86CB2DFF8A48200F0C4
:100C7000E7FC9A490020FFF75BFF91A7D7E90067DF
:100C80009349944800F06AFC3B2200238DF823200E
:100C90002B70002301220DF12301584600F068FB60
:100CA0002B78032BFCD18C4900231422584600F0EA
:100CB0002FFB2B78032BFCD16088C0BA01F096FA89
:100CC00000224FF07D5301F0FBFA01F093FD8246C4
:100CD000A088C0BA01F08AFA00224FF07D5301F0DB
:100CE000EFFA01F087FD0390E088C0BA01F07EFAC8
:100CF0007B4B002201F00EFC73A3D3E9002301F02B
:100D000029F901F077FD08EE100A2089C0BA01F038
:100D10006DFA32463B4601F0FDFB01F06BFD81466A
:100D20006089C0BA01F062FA32463B4601F0F2FB3C
:100D300001F060FD09EE100AA089C0BA01F056FA70
:100D400032463B4601F0E6FB01F054FD08EE900A06
:100D50002088C0BA01F04AFA00224FF07D5301F01A
:100D6000AFFA01F047FD01F053FA02460B4643EC9F
:100D7000172BCDE9042309AB424618460A218DED15
:100D8000007B02F00DFA504601F042FA02460B4693
:100D900043EC172BCDE906230CAB8DED007B4246CF
:100DA00018460A2102F0FCF9039801F031FA0FAB62
:100DB000CDE90001424618460A2102F0F1F9484601
:100DC00001F026FA12ABCDE90001424618460A218D
:100DD00002F0E6F919EE100A01F01AFA15ABCDE9A6
:100DE0000001424618460A2102F0DAF918EE900A8C
:100DF00001F00EFA4246CDE900010A2118A802F0DE
:100E0000CFF918EE100A01F003FA4246CDE90001CD
:100E10000A211BA802F0C4F909AA32490020FFF7F1
:100E200087FE0CAA30490020FFF782FE0FAA2F4947
:100E30000020FFF77DFE12AA2D490020FFF778FE63
:100E400015AA2C490020FFF773FE18AA2A49002092
:100E5000FFF76EFE29491BAA0020FFF769FEEFF39A
:100E60001082012383F31088254B1B681BB9254989
:100E7000CB704023CB7022490B6801330B6082F3A7
:100E80001088F3EE0B7AB4EEE78AF1EE10FA41DD4A
:100E90001D4B1E48196C014041F005011964D3F83F
:100EA0000011014041F00501C3F80011D3F80C21F5
:100EB000024042F00502C3F80C21EAE6AFF30080DD
:100EC0006666666666663040A4703D0AD743424057
:100ED000444E0000E40AFE1FC40AFE1FB04D00008D
:100EE00000407540D04D0000E04D0000F04D000086
:100EF000004E0000104E0000204E0000304E00005A
:100F0000640BFE1F000D044000080440FE3FFEFF7E
:100F1000C84D0000DFF81091DFF820A1D9F840306B
:100F200003EA0A0343F00403C9F84030D9F800315A
:100F300003EA0A0343F00403C9F80031D9F80C317D
:100F400003EA0A0343F00403C9F80C31DDE90401A4
:100F500036A3D3E9002301F039FC40B1DDE90401F7
:100F600034A3D3E9002301F027FC00283FD12E4A07
:100F7000136C23F0011323F4404343F0050313647F
:100F8000DDE9069A24A3D3E900234846514601F03F
:100F90001DFC38B122A3D3E900234846514601F095
:100FA0000BFC68BB204AD2F8003123F0011323F474
:100FB000404343F00503C2F800311B4ADDED037ADC
:100FC000D2F80C31F5EEC07A23F0011323F440433C
:100FD000F1EE10FA94BF43F0050343F00403C2F8A6
:100FE0000C314FF47A71012000F06EFE51E6D9F811
:100FF000403003EA0A0343F00403C9F84030BFE776
:10100000094AD2F8003123F0011323F4404343F09E
:101010000403C2F80031D0E79A9999999999E9BFE8
:101020009A9999999999E93F0008044033333333E9
:101030003333E3BF333333333333E33FFE3FFEFF1A
:1010400010B1024B02791A70704700BFD80AFE1F18
:10105000022800D070470249024800F0B7B800BF2C
:10106000744E0000DC0AFE1F08B5FFF771FD00207A
:1010700008BD00BF38B50488002C4DD0436800215E
:10108000043303EBC40040F202450C4640F2034C2B
:1010900040F2044E0FE0624530D153F8042C02F0C8
:1010A000B852B2F1807F14BF41F0020144F0020453
:1010B0000833834211D01A88AA42ECD153F8042C89
:1010C00002F0B852B2F1807F03F1080314BF41F07F
:1010D000010144F001048342EDD1C943CDB20120A6
:1010E00000F080FE0D4B93F8BB2414432C4083F892
:1010F000BB440120BDE8384000F044BE7245D7D162
:1011000053F8042C02F0B852B2F1807F0CBF44F0C7
:10111000040441F00401CBE7FF25E0E700E00140D3
:10112000F8B50446FFF7A6FFEFF31082012383F31F
:101130001088234E33681BB92249CB704023CB70F3
:1011400033680133336082F3108825882DB36268D9
:101150001D4C013DADB202F1080101EBC50500E0F7
:1011600008311068928810F4803F4FEA12235FFA2A
:1011700082FC0CEB031E09D054F82E7020F4803250
:101180006FF3104744F82E7044F82E201B0163447F
:101190008D4244F823000A46E2D1EFF31082012386
:1011A00083F31088336813B13368013B33603368CD
:1011B0001BB904498020CB70C87082F31088F8BD39
:1011C000640BFE1F000D04400008044068B161B1CB
:1011D00008B54B686BB1084B02689A4207D00360B0
:1011E0000846FFF79DFF002008BD012070470E2034
:1011F00008BD012008BD00BF54524F5030B5836B6D
:1012000083B004460A466D46A3B193E8030085E81F
:101210000300E16B1A71626B196018469047A36B6B
:101220001BB195E8030083E80300002384F82B300A
:1012300003B030BD2B46ECE730B4334B02691B6A78
:1012400082B003F00F2301930199019D137C90F864
:101250002C4094B9C1F30321DBB2A1EB15618B40A3
:101260009B0805D1082002B030BC7047013BF9D083
:101270005178C909FAD1B323D3710023016890F8DA
:10128000264080F8283080F827404C6A856980F82D
:101290002B30C56180F82D30036280F82E3080F845
:1012A0002F3080F8303023786478012B0CBF052371
:1012B000042343EA4403DBB2D370537943F00103C0
:1012C000537191F90F30002B09DB10495C090122A1
:1012D00003F01F0302FA03F341F824300269BF232D
:1012E000D37190F82C1001F0FF0331B1002380F886
:1012F0002C30184602B030BC70470221184651709D
:1013000002B030BC704700BF00E0014000E100E0E7
:1013100000B10AB90120704780F82A300029F9D0BD
:1013200010B4124BC4689C421CD1436BB3B1037A16
:10133000012BC0E905120AD1426880F8263052001C
:10134000002142F0010280F8251080F824200123BA
:101350005DF8044B80F82930FFF76EBF01205DF87F
:10136000044B704707205DF8044B704743494952CE
:1013700068B380F82A3051B310B4164BC4689C424D
:1013800011D1436B5BB1037A012BC0E905120ED07A
:1013900000235DF8044B80F82930FFF74DBF012092
:1013A0005DF8044B704707205DF8044B70474268B6
:1013B00080F826300021520080F8251080F8242083
:1013C00000235DF8044B80F82930FFF735BF01207A
:1013D000704700BF43494952036902682DE9F04F45
:1013E0001F241C705F241C70DF241C70546A556815
:1013F0002279564EDFF8608142F0E0021A74E278FA
:1014000042F0E0025A74A278120102F0700242F037
:1014100008029A7022786478012A0CBF05220422FF
:1014200042EA4402D2B2DA70494A95420CBFF7222E
:1014300077225A710027B3229F71DA7191F9112036
:1014400091F80DC0B4184FEA0C1C5FFA8CFC84F8BC
:1014500000C302F1C00548F822003E4C4FEA521E7C
:1014600054F825904FEA8E0E67F310490EF1604E46
:1014700044F825900EF5614E012502F01F0205FA91
:1014800002F2CEF88021CEF8002091F90F2006EB71
:10149000020E02F1C0098EF800C348F822004FEA9C
:1014A000521E4FEA8E0E54F829B00EF1604E0EF522
:1014B000614E02F01F0205FA02F267F3104B44F886
:1014C00029B0CEF88021CEF8002091F9102006EB4B
:1014D000020E02F1C0098EF800C348F822004FEA5C
:1014E000521E54F829B04FEA8E0E0EF1604E0EF5E2
:1014F000614E02F01F0267F3104B44F829B005FA61
:1015000002F2CEF88021CEF8002091F90E100E44A0
:101510004A0986F800C348F8210001F1C00001F033
:101520001F018D4054F82010920002F1604267F3D1
:10153000104144F8201002F561424FF09F0AC2F8B2
:101540008051156083F800A0BDE8F08F00E100E055
:1015500040420F0000600040680BFE1F00285FD073
:1015600000295DD04B6A002B5AD091F90E30002B28
:1015700056DB91F90F30002B52DB91F91030002B24
:101580004EDB91F91130002B4ADB2A4BC2689A429C
:101590004DD00B7807221A41D20745D530B5264ADF
:1015A0004C68944283B001D1002B3BD18A6803F58B
:1015B0008003C0E9001203F5A6631B0203610B7BE5
:1015C0000372D1E9072300244263C0E90E43EFF31D
:1015D000108C012383F310880D78184AC5F1090592
:1015E000AB40D2F8005125EA0303C2F80031D2F82B
:1015F00000318CF310880190FFF7EEFE01980D4B3F
:1016000080F82940C0E9074480F82A40446180F806
:101610002B40846180F82C40C360204603B030BD6D
:10162000012070470120F9E740F27A5070470E2000
:10163000704700BF4349495240420F00006F0440C9
:10164000002800F0848038B5C268424B9A420446B4
:1016500001D0072038BDC369002B6FD023692168F2
:101660000025DD712046FFF7B7FE94F82620A36918
:10167000E56184F82820236284F82C5023692268CD
:101680000020B321D971D871E06092F9113032494C
:101690004FEA531C03F01F020CF1200C012303FA44
:1016A00002F241F82C20BFF34F8FBFF36F8F2268F7
:1016B00092F90E204FEA521C0CF1200C02F01F028E
:1016C00003FA02F241F82C20BFF34F8FBFF36F8F64
:1016D000226892F910204FEA521C0CF1200C02F003
:1016E0001F0203FA02F241F82C20BFF34F8FBFF321
:1016F0006F8F226892F90F204FEA521C0CF1200CD8
:1017000002F01F0203FA02F241F82C20BFF34F8FC0
:10171000BFF36F8FEFF3108583F3108821680F4AB2
:101720000978C1F109018B40D2F800110B43C2F8CE
:101730000031D2F8003185F3108838BD90F82C3094
:10174000002B8BD190F82B30002B97D086E701200F
:10175000704700BF4349495200E100E0006F044078
:1017600010B483B0EFF30383103B5BB2484AC0333D
:1017700052F823106FF3104142F82310EFF3038364
:10178000103B444A5BB252F8233093F82D20BAB98B
:101790009A69012A1A6982BF117941F040011171D9
:1017A000D969012917D0D27CD2B28DF80720012146
:1017B0009DF8072083F82D1003B05DF8044B7047A7
:1017C000DA69002AF8D0032A0ED0022A4ED0012A64
:1017D00021D019690DE0117941F0100111711179D1
:1017E00041F008011171DEE719690A7942F04002FF
:1017F0000A711A6A5869C97C8154D3E907210131F9
:10180000013AC3E90721002AD6D119690B7962F39D
:1018100086130B71D0E793F82A1089B319681E4C10
:1018200091F90F104809203001F01F0102FA01F16F
:1018300044F82010BFF34F8FBFF36F8F1969C87939
:1018400040F08000C871087940F0100008710879F4
:101850004FF0040C6FF3C300087181F801C04879A0
:101860006FF30000487183F82C20C2E719690A79E8
:1018700042F010020A710A7942F008020A71B8E7D0
:1018800019694A7A082002F0F7024A724870B0E7F4
:1018900000600040680BFE1F00E100E0EFF30383EF
:1018A000103B5BB2354AC03352F823106FF310413E
:1018B00042F82310EFF30383103B5BB2304A52F837
:1018C000232092F82730002B37D192F829309BBB88
:1018D000D36910B4002B42D11069C1796FF3C711DD
:1018E000C023C17101E0013B02D0C179C909FAD11D
:1018F0001368224A93F9103003F1C001002B52F80B
:1019000021406FF3104442F8214009DB5A091D4C75
:1019100003F01F030121603201FA03F344F822307F
:10192000C3795DF8044B43F04003C371704702294B
:1019300009D192F8300030B9704792F82610032987
:1019400092F82810F3D0106992F824C080F812C0E1
:101950000131013B82F8281082F827307047D2E924
:101960000404116A013B645C84740131C2E90731EB
:10197000002BB2D05DF8044B704700BF0060004000
:10198000680BFE1F00E100E010B4EFF30383103B8F
:101990002B4A5BB252F8233093F829201AB193F8FE
:1019A0002720012A47D0DA69D2B11969CA796FF3C1
:1019B0008612C023CA7101E0013B02D0CA795206E7
:1019C000FAD4EFF30383103B5BB21E4AC03352F8E4
:1019D00023106FF3104142F823105DF8044B704759
:1019E00093F82A10F9B11968174C91F90F104809AA
:1019F00020304FF0010C01F01F010CFA01F144F806
:101A00002010BFF34F8FBFF36F8F1969C87940F073
:101A10008000C87104204870487962F30000487162
:101A200083F82CC0C2E719694B7A082203F0F70348
:101A30004B724A70BAE793F83020002AB3D1B4E76A
:101A4000680BFE1F0060004000E100E038B5EFF3D6
:101A50000383103B4B4A5BB2E02152F823402369D9
:101A60005A7A5972D506D0B202F003011FD55A78BE
:101A7000520648D4E269012184F82B10002A5ED076
:101A800000252168DD712046FFF7A6FC94F826109A
:101A9000A2692369E56184F82810226284F82C5039
:101AA000B322DA7101212046FFF7A8FB12E00029DA
:101AB000E0D101071BD594F82B20002A48D194F8D7
:101AC0002910B322002914BF02210321DA71204614
:101AD000FFF794FBEFF30383103B5BB22A4AC0335A
:101AE00052F823106FF3104142F8231038BD94F8D8
:101AF0002C20002AEED04207ECD594F82B200121AF
:101B0000002AE4D1DBE70029B4D15A785506C2F3A4
:101B10008011CED584F82B105A7A216802F0F70292
:101B2000496A5A72082058700A78012A0CBF0322A9
:101B30000222DA705A7942F001025A71CAE794F827
:101B40002C20002A9CD194F82B20002AA8D097E7BB
:101B5000E2696AB1002294F82600A169E26184F882
:101B60002800216284F82C20B322DA710121AEE72B
:101B700094F82C20002AEDD194F82B20002AF3D0E1
:101B8000E8E700BF680BFE1F00600040064B0749F6
:101B900093F826001A6A51F820300549C2F3026210
:101BA000D3400B60704700BF00E00140D801FE1F2A
:101BB000F40CFE1F30B4374B374C384938480022FC
:101BC0004AF20355A3F8FE53A4F80021354C4C60AB
:101BD000354D364C08604FF40040C1E9020493F8DB
:101BE0002640C1E9040551F824001C6A304DC4F3B5
:101BF0000264E0400924286083F8132483F8A2409B
:101C000093F8800418B183F8812483F88024214A52
:101C10000620002382F8A50082F8323092F83C308A
:101C20001807FBD5002342F20170108582F82A3094
:101C3000184B93F83C209206FBD5174A022082F8F5
:101C40001C01052083F826001A48186293F8260024
:101C50001C6A51F82000C4F3026C20FA0CF02860D2
:101C6000012140244FF4254083F8301083F85210AE
:101C700083F8531083F82440A3F8FE03A2F804115C
:101C8000B2F804319BB2002BFAD1012330BCA2F888
:101C90000031704700E0014000C00140D801FE1F44
:101CA000002D310100127A00001C4E0E00366E012C
:101CB000F40CFE1F2112012100BEFEE7A0F101007D
:101CC0000028FBD1704700BF30B5144D144A00FB0B
:101CD00001F14FF47A732868B2FBF0F2A1FB03C460
:101CE0004FF0FF304FF0000E60457EEB040407D349
:101CF000BCFBF2F0800878B1BDE83040FFF7DEBFF2
:101D00009200B1FBF2F1A1FB031388427EEB0303C7
:101D1000F2D308460028EFD130BD00BFF40CFE1FFF
:101D200000CA9A3B0B4B70B5B3F840510A4E0024E1
:101D3000ADB225FA04F3DB07E0B203D556F8243040
:101D400003B198470134102CF3D1024BA3F8305162
:101D500070BD00BF00600040240BFE1F10B4074A96
:101D6000074C002303F1C001013332F8020F44F89D
:101D70002100602BF6D15DF8044B7047C24F000084
:101D800000600040EFF31081012383F31088124BB1
:101D900033F8102092B22AB133F81020013A92B2EF
:101DA00023F8102033F810309BB293B90B4A10B4CB
:101DB000B2F8FE330A4C9BB234F8100043F42543CA
:101DC00023EA0003A2F8FE3381F310885DF8044B88
:101DD000704781F310887047E80CFE1F00E0014057
:101DE0008450000030B4EFF31081012383F3108896
:101DF0000E4A32F810309BB26BB90D4C0D4DB4F851
:101E0000FE3335F810C09BB243EA0C0343F425437C
:101E10009BB2A4F8FE3332F8103001339BB222F8A3
:101E2000103081F3108830BC704700BFE80CFE1FF3
:101E300000E00140845000000B4A08B503461068DA
:101E400040B10333094923F0030303448B4204D810
:101E5000136008BD06481060F3E700F01BFD0C237B
:101E600003604FF0FF3008BDF00CFE1F0811FE1F8D
:101E7000080DFE1F00BE704708B500F003F8FFF71D
:101E8000F3F8FEE7224B234A4FF4700170B50020AF
:101E9000C3F888109A60FFF7DBF8FFF78BFE01208C
:101EA000FFF7D6F81C4B1D491D4D1E4E1E481F4AFC
:101EB00000244FF4254C9C80A3F800C09E60DD6098
:101EC0004FF48055A1F8205101219980121A214622
:101ED00000F0F4FC1648174A1749184D121A00F082
:101EE000DFFC174B5B1BA34206DD9E1055F8043B3D
:101EF00001349847A642F9DCFFF748FE0220FFF7BD
:101F0000A7F8FFF72BFFBDE87040002000F01AB8DB
:101F100000ED00E000000000000D00400060004007
:101F20000815FE1F0811FE1FF001FE1F080DFE1F01
:101F30000000FE1FD801FE1F74540000D001FE1FD8
:101F4000D401FE1F704700BF81F0004102E000BFD6
:101F500083F0004330B54FEA41044FEA430594EA69
:101F6000050F08BF90EA020F1FBF54EA000C55EAA4
:101F7000020C7FEA645C7FEA655C00F0E2804FEA75
:101F80005454D4EB5555B8BF6D420CDD2C4480EA57
:101F9000020281EA030382EA000083EA010180EA87
:101FA000020281EA0303362D88BF30BD11F0004FD5
:101FB0004FEA01314FF4801C4CEA113102D040420B
:101FC00061EB410113F0004F4FEA03334CEA133346
:101FD00002D0524263EB430394EA050F00F0A7805E
:101FE000A4F10104D5F1200E0DDB02FA0EFC22FA59
:101FF00005F2801841F1000103FA0EF2801843FA4D
:1020000005F359410EE0A5F120050EF1200E012A3D
:1020100003FA0EFC28BF4CF0020C43FA05F3C0187B
:1020200051EBE37101F0004507D54FF0000EDCF1F4
:10203000000C7EEB00006EEB0101B1F5801F1BD39D
:10204000B1F5001F0CD349085FEA30004FEA3C0CA1
:1020500004F101044FEA445212F5800F80F09A8097
:10206000BCF1004F08BF5FEA500C50F1000041EB9B
:10207000045141EA050130BD5FEA4C0C404141EB9F
:102080000101013C28BFB1F5801FE9D291F0000F9A
:1020900004BF01460020B1FA81F308BF2033A3F149
:1020A0000B03B3F120020CDA0C3208DD02F1140C40
:1020B000C2F10C0201FA0CF021FA02F10CE002F17B
:1020C0001402D8BFC2F1200C01FA02F120FA0CFC74
:1020D000DCBF41EA0C019040E41AA2BF01EB0451BD
:1020E000294330BD6FEA04041F3C1CDA0C340EDCBB
:1020F00004F11404C4F1200220FA04F001FA02F3FE
:1021000040EA030021FA04F345EA030130BDC4F1BB
:102110000C04C4F1200220FA02F001FA04F340EAB0
:102120000300294630BD21FA04F0294630BD94F061
:10213000000F83F4801306BF81F480110134013D48
:102140004EE77FEA645C18BF7FEA655C29D094EAB9
:10215000050F08BF90EA020F05D054EA000C04BF37
:102160001946104630BD91EA030F1EBF0021002022
:1021700030BD5FEA545C05D14000494128BF41F0C1
:10218000004130BD14F580043CBF01F5801130BD25
:1021900001F0004545F0FE4141F470014FF00000B0
:1021A00030BD7FEA645C1ABF194610467FEA655C61
:1021B0001CBF0B46024650EA013406BF52EA033503
:1021C00091EA030F41F4002130BD00BF90F0000FF1
:1021D00004BF0021704730B54FF4806404F132042D
:1021E0004FF000054FF0000150E700BF90F0000FE6
:1021F00004BF0021704730B54FF4806404F132040D
:1022000010F0004548BF40424FF000013EE700BFDC
:1022100042004FEAE2014FEA31014FEA02701FBF6C
:1022200012F07F4393F07F4F81F06051704732F09E
:102230007F4208BF704793F07F4F04BF41F40021F5
:10224000704730B54FF4607401F0004521F0004153
:102250001CE700BF50EA010208BF704730B54FF0DD
:1022600000050AE050EA010208BF704730B511F0DE
:10227000004502D5404261EB41014FF4806404F116
:1022800032045FEA915C3FF4D8AE4FF003025FEA9C
:10229000DC0C18BF03325FEADC0C18BF033202EB20
:1022A000DC02C2F1200300FA03FC20FA02F001FA7A
:1022B00003FE40EA0E0021FA02F11444BDE600BF1D
:1022C00070B54FF0FF0C4CF4E06C1CEA11541DBFCC
:1022D0001CEA135594EA0C0F95EA0C0F00F0DEF897
:1022E0002C4481EA030621EA4C5123EA4C5350EA7C
:1022F000013518BF52EA033541F4801143F48013CD
:1023000038D0A0FB02CE4FF00005E1FB02E506F05D
:102310000042E0FB03E54FF00006E1FB03569CF0B2
:10232000000F18BF4EF0010EA4F1FF04B6F5007FB8
:1023300064F5407404D25FEA4E0E6D4146EB06062A
:1023400042EAC62141EA55514FEAC52040EA5E50B3
:102350004FEACE2EB4F1FD0C88BFBCF5E06F1ED85D
:10236000BEF1004F08BF5FEA500E50F1000041EB94
:10237000045170BD06F0004646EA010140EA020041
:1023800081EA0301B4EB5C04C2BFD4EB0C0541EA63
:10239000045170BD41F480114FF0000E013C00F378
:1023A000AB8014F1360FDEBF002001F0004170BD9C
:1023B000C4F10004203C35DA0C341BDC04F11404B5
:1023C000C4F1200500FA05F320FA04F001FA05F241
:1023D00040EA020001F0004221F0004110EBD3700E
:1023E00021FA04F642EB06015EEA430E08BF20EA3A
:1023F000D37070BDC4F10C04C4F1200500FA04F3DD
:1024000020FA05F001FA04F240EA020001F000416E
:1024100010EBD37041F100015EEA430E08BF20EAE1
:10242000D37070BDC4F1200500FA05F24EEA020E29
:1024300020FA04F301FA05F243EA020321FA04F058
:1024400001F0004121FA04F220EA020000EBD3700F
:102450005EEA430E08BF20EAD37070BD94F0000F0F
:102460000FD101F00046400041EB010111F4801F43
:1024700008BF013CF7D041EA060195F0000F18BFF4
:10248000704703F00046520043EB030313F4801F30
:1024900008BF013DF7D043EA0603704794EA0C0FEA
:1024A0000CEA135518BF95EA0C0F0CD050EA410600
:1024B00018BF52EA4306D1D181EA030101F000417D
:1024C0004FF0000070BD50EA410606BF10461946A5
:1024D00052EA430619D094EA0C0F02D150EA0136B1
:1024E00013D195EA0C0F05D152EA03361CBF1046F2
:1024F00019460AD181EA030101F0004141F0FE4191
:1025000041F470014FF0000070BD41F0FE4141F414
:10251000780170BD70B54FF0FF0C4CF4E06C1CEA14
:1025200011541DBF1CEA135594EA0C0F95EA0C0FC9
:1025300000F0A7F8A4EB050481EA030E52EA033584
:102540004FEA013100F088804FEA03334FF08055A5
:1025500045EA131343EA12634FEA022245EA1115D2
:1025600045EA10654FEA00260EF000419D4208BF83
:10257000964244F1FD0404F5407402D25B084FEA30
:102580003202B61A65EB03055B084FEA32024FF4DC
:1025900080104FF4002CB6EB020E75EB030E22BF39
:1025A000B61A754640EA0C005B084FEA3202B6EBF9
:1025B000020E75EB030E22BFB61A754640EA5C00A8
:1025C0005B084FEA3202B6EB020E75EB030E22BF38
:1025D000B61A754640EA9C005B084FEA3202B6EB39
:1025E000020E75EB030E22BFB61A754640EADC00F8
:1025F00055EA060E18D04FEA051545EA16754FEA5A
:1026000006164FEAC30343EA52734FEAC2025FEA77
:102610001C1CC0D111F4801F0BD141EA00014FF006
:1026200000004FF0004CB6E711F4801F04BF0143D7
:102630000020B4F1FD0C88BFBCF5E06F3FF6AFAEF3
:10264000B5EB030C04BFB6EB020C5FEA500C50F183
:10265000000041EB045170BD0EF0004E4EEA113106
:1026600014EB5C04C2BFD4EB0C0541EA045170BD0D
:1026700041F480114FF0000E013C90E645EA060E51
:102680008DE60CEA135594EA0C0F08BF95EA0C0F7F
:102690003FF43BAF94EA0C0F0AD150EA01347FF4C7
:1026A00034AF95EA0C0F7FF425AF104619462CE79E
:1026B00095EA0C0F06D152EA03353FF4FDAE104601
:1026C000194622E750EA410618BF52EA43067FF452
:1026D000C5AE50EA41047FF40DAF52EA43057FF4E2
:1026E000EBAE12E74FF0FF3C06E000BF4FF0010CED
:1026F00002E000BF4FF0010C4DF804CD4FEA410C51
:102700007FEA6C5C4FEA430C18BF7FEA6C5C1BD01D
:1027100001B050EA410C0CBF52EA430C91EA030F9E
:1027200002BF90EA020F0020704710F1000F91EAFB
:10273000030F58BF994208BF90422CBFD8176FEAC9
:10274000E37040F0010070474FEA410C7FEA6C5C97
:1027500002D150EA013C07D14FEA430C7FEA6C5C9E
:10276000D6D152EA033CD3D05DF8040B704700BFCA
:102770008446104662468C461946634600E000BF18
:1027800001B5FFF7B7FF002848BF10F1000F01BDEA
:102790004DF808EDFFF7F4FF0CBF012000205DF8B5
:1027A00008FB00BF4DF808EDFFF7EAFF34BF01203A
:1027B00000205DF808FB00BF4DF808EDFFF7E0FFD3
:1027C00094BF012000205DF808FB00BF4DF808ED24
:1027D000FFF7CEFF94BF012000205DF808FB00BF8B
:1027E0004DF808EDFFF7C4FF34BF012000205DF86D
:1027F00008FB00BF4FEA4102B2F1E04324BFB3F54A
:10280000001CDCF1FE5C0DD901F0004C4FEAC00267
:102810004CEA5070B2F1004F40EB830008BF20F04B
:102820000100704711F0804F21D113F13872BCBF05
:1028300001F00040704741F480114FEA5252C2F15A
:102840001802C2F1200C10FA0CF320FA02F018BFA3
:1028500040F001004FEAC1234FEAD32303FA0CFCF6
:1028600040EA0C0023FA02F34FEA4303CCE77FEA85
:10287000625307D150EA01331EBF4FF0FE4040F4CF
:102880004000704701F0004040F0FE4040F400007E
:10289000704700BF014B1868704700BF0000FE1F63
:1028A0000A44914200F1FF3300D1704710B511F88E
:1028B000014B03F8014F9142F9D110BD0244034688
:1028C000934200D1704703F8011BF9E72DE9FF4758
:1028D00055EC104B002D0E4619462B46BBBF05F19B
:1028E00000431D4600232D230B700D9BDDF830A007
:1028F000914623F02008BCBF22461446B8F1460F8B
:1029000005D0B8F1450F00D10136022100E00321C6
:1029100003AB019302AB009345EC104B5346324698
:1029200000F006FDB8F1470F074602D119F0010F7C
:1029300022D0B8F1460F07EB060910D13B78302BB7
:102940000AD10022002320462946FFF721FF18B9AB
:10295000C6F10106CAF80060DAF800309944002296
:10296000002320462946FFF713FF08B1CDF80C904D
:102970003022039B4B4507D3039B0E9ADB1B384643
:10298000136004B0BDE8F087591C03911A70F0E79A
:10299000F7B503460029B8BF494203F8022BB4BF7C
:1029A0002D222B22092942702ADD0DF10704A446AD
:1029B0000A27A6460A4691FBF7F607FB161530359F
:1029C000632A04F1FF340EF8015C3146F1DC30314A
:1029D000AEF1020504F8011C441C294661450AD3E6
:1029E0000DF10902A2EB0E02654588BF00221344D7
:1029F000181A03B0F0BD11F8012B04F8012FEDE710
:102A0000302330318370C170031DF1E72DE9F04FA1
:102A10002DED028B8DB00C46DDF8608016461F460A
:102A2000054601F073FAD0F800A0504600F0ECFB28
:102A300000230A9323680593D8F8003094F818B05F
:102A4000073323F0070303F10802C8F80020D3E995
:102A50000023C4E91223D4E9128929F00043079323
:102A6000CDF8188008EE100A9F4BDDE906014FF003
:102A7000FF3202F011F988BBDDE906019A4B4FF0F5
:102A8000FF32FFF799FE48BB00220023404649462B
:102A9000FFF788FE10B12D2384F84330934B944800
:102AA000BBF1470F94BF9846804603232361059BE3
:102AB00023F0040222604FF00009009733460BAA6E
:102AC0002146284600F0D8F9013040F090804FF0C0
:102AD000FF300DB0BDEC028BBDE8F08F42464B4697
:102AE0004046494602F0D8F840B14B46002BBCBFE7
:102AF0002D2384F843307F487F4BD1E763680BF088
:102B0000DF0206925A1C3FD106236360059B616871
:102B100043F48062002303930AABCDE901B309AB10
:102B200049EC108B009322600DF123032846FFF738
:102B3000CDFE069B0999472B804608D1C81C02DBB5
:102B40006368994241DDABF1020B5FFA8BFBBBF18D
:102B5000650F20D801395A4604F150000991FFF75A
:102B600017FF0A9A1318012A8146236102DC2268A2
:102B7000D20701D5013323619DF82330002B9CD06F
:102B80002D2384F8433098E7069A472ABED1002BBC
:102B9000BCD10123B9E7BBF1660F18D100296368E6
:102BA0000BDD216113B92268D00702D501330B4434
:102BB0002361A1654FF00009DEE713B92268D2074F
:102BC00001D50233F4E70123F2E74FF0670B0A9BCC
:102BD000994205DB23682161D807EAD54B1CE7E75A
:102BE0000029D4BFC1F1020201221344E0E72368A7
:102BF0005A0507D42369424631462846B847013072
:102C00002CD164E7BBF1650F40F2E080D4E91201FA
:102C100000220023FFF7BCFD002834D0374A0123EF
:102C200031462846B84701303FF451AFDDE909236A
:102C30009A4202DB2368D80710D518EE103A5246A4
:102C400031462846B84701303FF441AF4FF0000805
:102C500004F11A090A9B013B434509DC23689B07E1
:102C600000F10581E0680B9B9842B8BF184630E739
:102C700001234A4631462846B84701303FF427AF82
:102C800008F10108E6E7099B002B39DC1B4A012308
:102C900031462846B84701303FF419AFDDE9092332
:102CA000134302D12368D907D8D518EE103A5246FB
:102CB00031462846B84701303FF409AF4FF00009CC
:102CC00004F11A0A099B5B424B4501DC0A9B92E71F
:102CD0000123524631462846B84701303FF4F7AE4B
:102CE00009F10109EEE700BFFFFFEF7F8C50000004
:102CF0009050000098500000945000009C5000003C
:102D00000A9AA36D9A42A8BF1A46002A914637DC58
:102D10004FF0000B29EAE97904F11A02A36D05933B
:102D2000A3EB09035B4533DCDDE909239A423BDB76
:102D30002368DA0738D40A9B059A09999A1AA3EBF3
:102D400001099145A8BF9146B9F1000F35DC4FF05C
:102D5000000829EAE97904F11A0ADDE909239B1A36
:102D6000A3EB090343457FF779AF01235246314670
:102D70002846B84701303FF4AAAE08F10108ECE755
:102D80001346314642462846B8470130C0D19EE638
:102D90000123314628460592B84701303FF497AEEB
:102DA000059A0BF1010BB9E718EE103A524631467D
:102DB0002846B8470130BED189E6059A4B464244C1
:102DC00031462846B8470130C1D180E60A9A012A27
:102DD00001DCDB0738D50123424631462846B84797
:102DE00001303FF474AE18EE103A52463146284690
:102DF000B84701303FF46BAED4E912010022002342
:102E0000FFF7C6FCD8B90A9B08F10102013B314625
:102E10002846B84701300ED159E6012352463146C3
:102E20002846B84701303FF452AE08F101080A9B2A
:102E3000013B4345F1DC4B4604F15002DCE64FF028
:102E4000000804F11A0AF2E701234246DFE70123F2
:102E50004A4631462846B84701303FF438AE08F1BB
:102E60000108E3680B995B1A4345F0DCFAE64FF082
:102E7000000804F11909F4E72DE9F04716469946D0
:102E80008A680B69DDF820809342B8BF134633602F
:102E900091F8432007460C460AB10133336023689A
:102EA000990642BF336802333360256815F0060582
:102EB00006D104F1190AE36832689B1AAB4226DC9A
:102EC00094F84320131E226818BF012392062BD4C6
:102ED00004F1430249463846C04701301ED02368FA
:102EE000E568326803F00603042B08BFAD1AA36837
:102EF00022690CBF25EAE57500259342C4BF9B1AE1
:102F0000ED1800261A34B5421AD1002008E001233A
:102F1000524649463846C047013003D14FF0FF3092
:102F2000BDE8F0870135C6E7E1185A1C302081F86A
:102F30004300224494F8451082F843100233C7E757
:102F40000123224649463846C0470130E6D00136C3
:102F5000D9E7FFFF2DE9FF470F7E0C9D782F9146A3
:102F600080460C469A4601F1430207D8622F0AD8E0
:102F7000002F00F0D880582F00F0A38004F1420504
:102F800084F842703AE0A7F16303152BF6D801A14B
:102F900051F823F0ED2F0000013000007D2F0000DC
:102FA0007D2F00007D2F00007D2F000001300000EC
:102FB0007D2F00007D2F00007D2F00007D2F000061
:102FC0000D31000031300000EF3000007D2F000097
:102FD0007D2F00002F3100007D2F000031300000D8
:102FE0007D2F00007D2F0000F73000002B681A1D98
:102FF0001B682A6004F1420584F842300123A3E0F3
:1030000020682968060601F104030AD50E682B60C2
:10301000002E03DA2D23764284F843305E480A23DB
:1030200019E00E682B6010F0400F18BF36B2EFE7C2
:103030002B682068191D2960010601D51E6802E071
:103040004606FBD51E8854486F2F0CBF08230A2361
:10305000002184F843106568A560002DA2BF216897
:1030600021F0040121600EB9002D4DD01546B6FBAC
:10307000F3F103FB1167C75D05F8017D3746BB42DD
:103080000E46F4D9082B0BD12368DE0708D5236937
:1030900061689942DEBF302305F8013C05F1FF3538
:1030A000521B2261CDF800A04B4603AA21464046A0
:1030B000FFF7E2FE01304CD14FF0FF3004B0BDE825
:1030C000F087354881F845702968236851F8046B0A
:1030D00029601D0614D5DF0744BF43F02003236099
:1030E0001EB9236823F0200323601023B0E7236870
:1030F00043F0200323607823284884F84530E3E731
:10310000590648BFB6B2E6E71546BBE72B68266806
:103110006169181D286035061B6801D5196002E039
:103120007006FBD51980002323611546BAE72B688A
:103130001A1D2A601D6862680021284600F0F8FE0A
:1031400008B1401B606063682361002384F843304A
:10315000A8E723692A4649464046D0470130ABD00C
:1031600023689B0713D4E068039B9842B8BF1846B6
:10317000A4E70123324649464046D04701309BD060
:103180000135E36803995B1AAB42F2DCEBE70025FB
:1031900004F11906F5E700BF9E500000AF50000093
:1031A0000CB430B5174B0C1E1D689DB008DA8B238C
:1031B0002B604FF0FF301DB0BDE8304002B07047CB
:1031C0004FF40273ADF8143014BF04F1FF332346FB
:1031D000049307934FF6FF7302900690ADF81630F4
:1031E000209A21AB02A92846019301F0C7FB431C9A
:1031F000BCBF8B232B60002CDDD0029B00221A70F9
:10320000D9E700BF0000FE1F034613F8012B002A78
:10321000FBD1181A013870472DE9F74F03690C6983
:10322000A3420746C0F28180013C01F1140800F17D
:10323000140505EB8403019358F8243055F8242035
:1032400001339A424FEA840B08EB8409B2FBF3F690
:1032500031D34FF0000E4046AC46F24650F8042BF6
:1032600093B206FB03E34FEA134E9BB2AAEB0303B0
:10327000DCF800A0120C13FA8AF306FB02E20093BA
:10328000009B4FEA124E92B2C2EB1A4202EB23426B
:10329000BDF80030814543EA02434CF8043B4FEA55
:1032A000224ADBD255F80B302BB9019B043B9D42DF
:1032B0001A462ED33C61384601F00CF9002824DB75
:1032C000013628464FF0000C58F8042BD0F800E0E7
:1032D00093B2ACEB0303120C13FA8EF3C2EB1E4253
:1032E00002EB23429BB243EA0243C14540F8043B50
:1032F0004FEA224CE8D255F8242005EB840322B98A
:10330000043B9D421A460AD33C61304603B0BDE8F7
:10331000F08F1268043B002ACCD1013CC7E7126849
:10332000043B002AF0D1013CEBE70020EEE7FFFF71
:103330002DE9F04F2DED048B57EC106B93B0456ADF
:10334000DDF88080069110EE10AA044609920C93D5
:10335000BB4675B9102000F0DDFD0246606220B961
:10336000A74BEA21A748FEF7A7FCC0E90155056075
:10337000C560636A196851B15A684A600123934075
:103380008B60204600F064FE636A00221A603B1ED8
:10339000AABF002323F0004BC8F800309A4BBCBFF3
:1033A0000122C8F8002033EA0B031BD10C9A42F229
:1033B0000F731360CBF31303334300F09285219B0B
:1033C00063B9924B22E0924B01930833219A136028
:1033D000019813B0BDEC048BBDE8F08F8B4B0193CB
:1033E0000333F3E70022002350465946FFF7D0F994
:1033F0004BEC19AB804658B10C9A01231360219B0A
:10340000002B00F06B8583481860431E0193DFE7B3
:103410004BEC10AB10AA11A9204601F001F9CBF337
:103420000A5508EE100A002D00F0848019EE903A3B
:10343000C3F3130343F07F57564647F44017A5F2F2
:10344000FF35CDF83880744B002230463946FEF700
:103450007FFD65A3D3E90023FEF732FF64A3D3E920
:103460000023FEF777FD064628460F46FEF7BEFE10
:1034700061A3D3E90023FEF723FF02460B46304643
:103480003946FEF767FD06460F4601F01BFC002299
:103490000090002330463946FFF784F950B1009878
:1034A000FEF7A4FE32463B46FFF772F910B9009BC7
:1034B000013B0093009B162B5AD8009A574B03EB05
:1034C000C203D3E9002351EC190BFFF76BF9002875
:1034D00050D0009B013B009300230B93109B5D1B7E
:1034E0006B1E059345BFC5F1010304930023002320
:1034F0004CBF05930493009B002B3DDB059B009A7A
:103500000A921344059300230793069B092B00F2AC
:103510008980052BC4BF043B0693069BA3F10203DD
:10352000CCBF00250125032B00F28780DFE803F0E4
:103530002D3A3859DDE910531D4405F23243202B52
:10354000C1BFC3F1400305F212400BFA03F326FAA0
:1035500000F0DABFC3F1200306FA03F01843FEF7C8
:1035600035FE01230646A1F1F877013D0E936AE787
:103570000123B2E70B90B1E7049B009A9B1A0493D6
:103580005342079300230A93BFE700230893099B44
:10359000002B55DC0123CDE902331A4609920CE0D9
:1035A0000123F3E70023099A0893009B1344029335
:1035B0000133012B0393B8BF0123606A00224260EC
:1035C000042202F114069E4241683DD9204600F0D3
:1035D000FFFC019000283BD1114B02464FF4D571FE
:1035E000C0E60123DFE700BF61436F63A787D23FD7
:1035F000B3C8608B288AC63FFB799F501344D33FE2
:10360000CD500000E45000000000F07FC9500000E1
:10361000C05000009D5000000000F83F2052000004
:103620006251000001250023069308954FF0FF33F7
:10363000CDE9023300221223B0E701230893F5E716
:10364000099BCDE90233B8E7013141605200B8E788
:10365000636A019A1A60039B0E2B00F29D80002D75
:1036600000F09A80009B002B32DDB74A03F00F0375
:1036700002EBC303D3E90089009BD8054FEA231767
:1036800016D5B24B51EC190BD3E90823FEF742FFD4
:1036900007F00F0782468B460325AC4E57B94246CA
:1036A0004B4650465946FEF735FF82468B4628E08A
:1036B0000225F2E7F90708D540464946D6E9002336
:1036C000FEF7FEFD0135804689467F100836E5E7A6
:1036D00000F09B80009B9D4F5E429B4B06F00F02CB
:1036E00003EBC203D3E9002351EC190BFEF7E8FD0D
:1036F000361182468B4600230225002E7AD1002BFC
:10370000D3D10B9B002B00F08280914B00225046BE
:103710005946FFF747F8002879D0039B002B76D055
:10372000029B002B36DD009B504659465F1E00224F
:10373000884BFEF7C5FD029E82468B460135284622
:10374000FEF754FD52465B46FEF7BAFD824B00225F
:10375000FEF700FCD046D9468246A1F1507B002EF0
:1037600058D17E4B002240464946FEF7F1FB5246B7
:103770005B4680468946FFF733F8002840F0958283
:1037800052460BF1004340464946FFF70BF800282C
:1037900040F089825BEC19AB119B002BC0F2488191
:1037A000009A0E2A00F34481674B03EBC203D3E96E
:1037B0000089099B002B80F2D580039B002B00F32E
:1037C000D18040F06F82654B002240464946FEF7AB
:1037D00077FD52465B46FEF7F9FF039E3746002809
:1037E00040F04582019D312305F8013B009B0133E8
:1037F000009340E2F20705D5D7E90023FEF760FD0C
:10380000013501237610083777E7022579E7009F15
:10381000039E94E701994C4B31440D91089903EBB9
:10382000C60353E90223002943D04D490020FEF787
:1038300071FE52465B46FEF78BFB019D82468B462E
:103840004946404601F03EFA0646FEF7CFFC0246E6
:103850000B4640464946FEF77BFB303605F8016BC8
:1038600052465B4680468946FEF79CFF002863D19E
:1038700042464B4636490020FEF76AFB52465B46FD
:10388000FEF790FF002840F0B5800D9B9D4281D04F
:10389000304B002250465946FEF712FD2D4B824612
:1038A0008B46404649460022FEF70AFD804689467F
:1038B000C6E750465946FEF703FD0D9B019D0F9349
:1038C00082468B464946404601F0FCF90646FEF723
:1038D0008DFC303602460B4640464946FEF738FB23
:1038E00005F8016B0D9B9D42804689464FF0000212
:1038F00024D11B4B50465946FEF72CFB02460B4683
:1039000040464946FEF76CFF002873D152465B469D
:1039100013490020FEF71CFB02460B464046494671
:10392000FEF740FF00283FF435AF0F9D6B1E0F934D
:1039300015F8013C302BF8D0009749E0054BFEF715
:10394000BFFC80468946BDE720520000F8510000C8
:103950000000F03F0000244000001C400000144024
:103960000000E03F019D56465F4642464B463046CA
:103970003946FEF7CFFD01F0A5F98246FEF736FC89
:1039800042464B46FEF79CFC02460B463046394603
:103990000AF13006FEF7DCFA05F8016B019E039F81
:1039A000AE1BB74202460B4635D1FEF7D3FA42466C
:1039B0004B4606460F46FEF713FFD0B942464B462C
:1039C00030463946FEF7E4FE10B11AF0010F10D16F
:1039D000204618EE101A00F03BFB002300982B70D5
:1039E0000C9B01301860219B002B3FF4F1AC1D6053
:1039F000EEE4009F2B461D4613F8012D392A06D10F
:103A0000019A9A42F7D10199302201370A701A7847
:103A100001321A7090E7A64B0022FEF751FC0022FB
:103A2000002306460F46FEF7B3FE00289DD0CFE7E1
:103A3000089A002A00F0D780069A012A00F3BA807B
:103A40000E9A002A00F0B28003F23343079E049DD1
:103A5000049A1A440492059A01211A4420460592B8
:103A600000F0AEFB0746002D0CDD059B002B09DDA9
:103A7000AB42049AA8BF2B46D21A0492059AED1ABB
:103A8000D31A0593079B1BB3089B002B00F0AF8054
:103A9000002E13DD39463246204600F051FC18EE68
:103AA000102A01460746204600F0A0FB18EE101A27
:103AB0008046204600F0CCFA08EE108A079B9A1B3D
:103AC00006D018EE101A204600F03AFC08EE100A54
:103AD0000121204600F074FB0A9B002B064640F3B0
:103AE00088801A460146204600F02AFC069B012BDE
:103AF000064640F381804FF00008336906EB8303EC
:103B0000186900F00DFBC0F12000059B184410F06F
:103B10001F0000F09280C0F12003042B40F38A8044
:103B2000C0F11C00049B03440493059B034405441B
:103B30000593049B002B07DD18EE101A1A46204649
:103B400000F058FC08EE100A059B002B05DD3146FD
:103B50001A46204600F04EFC06460B9B002B6ED00A
:103B600018EE100A314600F0B5FC002867DA009B19
:103B7000013B18EE101A00930A220023204600F0A1
:103B800089FA089B08EE100A002B00F0B18100238F
:103B900039460A22204600F07DFA029B002B074698
:103BA00000F38E80069B022B51DC89E0109BC3F151
:103BB00036034BE7039B5E1E079BB342BFBF079BC9
:103BC0000796F21A0A9BB6BF9B189E1B0A93039B8B
:103BD000B8BF0026002BB7BFDDE90323DDE90335BD
:103BE0009D1A002334E7079E049D089F3BE7079A30
:103BF00067E7069B012B18DCBAF1000F15D1CBF358
:103C0000130393B92BF000431B0D1B0583B1049BD9
:103C100001330493059B013305934FF001080A9B80
:103C2000002B7FF46AAF01206FE74FF00008F6E742
:103C30009846F4E73FF47DAF18461C3072E7039BCB
:103C4000002B37DC069B022B34DD039B0293029B87
:103C50006BB931460522204600F01CFA01460646A3
:103C600018EE100A00F036FC00283FF7BBAD099BA8
:103C7000019DDB4300934FF000083146204600F0E1
:103C8000E7F9002F3FF4A4AEB8F1000F05D0B84516
:103C900003D04146204600F0DBF93946204600F0CB
:103CA000D7F995E600263746E1E70097374699E5CC
:103CB00000002440089B002B00F0CA80039B029365
:103CC000002D05DD39462A46204600F093FB0746C5
:103CD000B8F1000F5BD07968204600F079F905460D
:103CE00028B9874B024640F2EA21FFF73BBB3A690D
:103CF0000232920007F10C010C30FEF7D1FD0122D7
:103D00002946204600F076FB019B03F10109DDE91D
:103D10000123134405930AF00103B84604930746B0
:103D2000314618EE100AFFF777FA4146029000F18B
:103D3000300A18EE100A00F0CDFB3A4603903146E7
:103D4000204600F0E3FBC26809F1FF3B054602BBD9
:103D5000014618EE100A00F0BDFB02462946204637
:103D6000079200F075F9DDE9063243EA0201049B8F
:103D70000B434D460FD1BAF1390F2AD0039B002BCC
:103D800002DD029B03F1310A8BF800A075E738468B
:103D9000BAE70122E2E7039B002B04DB06990B4301
:103DA00004990B4322D1002AEEDD18EE101A0122ED
:103DB000204600F01FFB314608EE100A00F08AFB97
:103DC000002803DCE0D11AF0010FDDD0BAF1390F81
:103DD000D7D139238BF800302B461D46013B15F80F
:103DE000012C392A71D001321A7046E7002A07DD0A
:103DF000BAF1390FEDD00AF101038BF800303CE73E
:103E0000059B09F801AC994547D018EE101A00231C
:103E10000A22204600F03EF9B84508EE100A4FF09D
:103E200000034FF00A024146204606D100F032F965
:103E30008046074609F1010972E700F02BF939467F
:103E4000804600230A22204600F024F90746F1E7C5
:103E5000039B0293019D18EE100A3146FFF7DCF92F
:103E600000F1300A019B05F801ABEA1A029B93426C
:103E700009DD18EE101A00230A22204600F00AF984
:103E800008EE100AE7E7029B002BC8BF1D46019B06
:103E9000D8BF01251D444FF0000818EE101A01226A
:103EA000204600F0A7FA314608EE100A00F012FB97
:103EB000002891DC02D11AF0010F8DD12B461D464E
:103EC00013F8012D302AFAD0D7E6019A9A4284D10C
:103ED000009B0133009331231370CEE6094BFFF7AB
:103EE00095BA219B002B7FF46EAA074BFFF78EBA81
:103EF000029B002BAEDC069B022B3FF7A8AEA9E786
:103F0000625100009C500000C05000000048704703
:103F10005401FE1F024B0146186800F05FBC00BF51
:103F20000000FE1FFFFFFFFFFFFFFFFFFFFFFFFF80
:103F300001F0FF01102A2BDB10F0070F08D010F85A
:103F4000013B013A8B422DD010F0070F42B3F6D15E
:103F5000F0B441EA012141EA014122F007047FF077
:103F600000070023F0E80256083C85EA010586EACE
:103F7000010685FA47F5A3FA87F586FA47F6A5FA0A
:103F800087F68EB9EED1F0BC01F0FF0102F0070216
:103F900032B110F8013B013A83EA010313B1F8D1C1
:103FA0000020704701387047002D06BF35460338A2
:103FB000073815F0010F07D1013015F4807F02BFDB
:103FC000013015F4C03F0130F0BC0138704700BF2C
:103FD00070B5466A04460D4676B91020FFF79AFF81
:103FE0000246606220B9184B18486621FDF764FE4E
:103FF000C0E901660660C660666AF36883B1636AF9
:10400000DB6853F82500B8B9012101FA05F6721DE5
:104010009200204600F060FB60B1C0E901560EE05E
:1040200021220421204600F057FB636AF060DB6820
:10403000002BE4D1002070BD026843F82520002346
:10404000C0E90333F7E700BFCD5000007351000013
:1040500070B5466A05460C4676B91020FFF75AFF40
:104060000246686220B9094B09488A21FDF724FEFF
:10407000C0E901660660C6603CB16B6A6268DB68D5
:1040800053F82210216043F8224070BDCD5000004B
:10409000735100002DE9F0410D6907460C461E469C
:1040A00001F1140C0020DCF8003099B202FB016130
:1040B0001E0C0B0C02FB063389B2013001EB0341ED
:1040C00085424CF8041B4FEA1346ECDC0EB3A368A0
:1040D000AB4219DC616838460131FFF779FF804651
:1040E00028B902460C4B0D48B521FDF7E5FD2269C4
:1040F000023204F10C0192000C30FEF7D1FB214694
:104100003846FFF7A5FF444604EB850301355E61A1
:1041100025612046BDE8F081625100007351000026
:10412000030C1B04D3B90004102310F07F4F04BF0D
:104130000002083310F0704F04BF0001043310F088
:10414000404F04BF80000233002805DB10F0804F91
:1041500003F1010308BF2023184670470023E4E75A
:10416000036813F0070201460BD0DA0723D498073F
:1041700049BF5B089B0801200B605CBF0B600220FD
:10418000704798B2A8B91B0C1020DAB20AB90830EF
:104190001B0A1A0704BF1B0904309A0704BF9B08B7
:1041A0000230DA0703D45B0800F1010005D00B6090
:1041B00070471046E9E70020704720207047FFFF56
:1041C00010B50C460121FFF703FF024628B9054B45
:1041D00005484FF4A071FDF76FFD012344610361B1
:1041E00010BD00BF62510000735100002DE9F04F77
:1041F00091460A69D9F810309A42B8BF0B460C466E
:10420000BCBF4C4699462769D9F810A0A3686168DD
:1042100007EB0A06B34285B0B8BF0131FFF7D8FEFD
:1042200030B90246444B454840F25D11FDF744FD6C
:1042300000F1140505EB86082B460022434521D3E7
:1042400004F1140303EB870709F1140303EB8A025B
:1042500002923A1B153A22F00302043204F11501CE
:104260008F4238BF04220192029A03939A420CD8DB
:10427000002E03DD58F8043D002B5AD0066105B02E
:10428000BDE8F08F43F8042BD8E7B3F800A0BAF1EB
:10429000000F24D004F1140EA9464FF0000C5EF874
:1042A000042BD9F800101FFA82FB89B20AFB0B110C
:1042B0004FEA124BD9F8002061444FEA124C0AFB36
:1042C0000BC202EB114289B241EA0241774549F83B
:1042D000041B4FEA124CE2D8019A45F802C0039A37
:1042E000B2F802900433B9F1000F20D0296804F12C
:1042F000140CAE464FF0000ABCF800B0BEF8022025
:1043000009FB0B22924489B241EA0A414EF8041B90
:104310005CF8042BBEF80010120C09FB021101EB33
:104320001A4167454FEA114AE6D8019AA950043567
:104330009AE7013E9CE700BF625100007351000004
:104340002DE9F843154612F0030206460F4607D042
:10435000254C013A002354F82220FFF79BFE074624
:10436000AD103DD0746A7CB91020FFF7D3FD024632
:10437000706228B91D4B1E484FF4D771FDF79CFCA5
:10438000C0E901440460C460D6F82480D8F808402D
:104390004CB940F271213046FFF712FF0023C8F8F4
:1043A0000800044603604FF00009EB070AD53946C0
:1043B00022463046FFF71AFF394680463046FFF75F
:1043C00047FE47466D100BD0206838B9224621467B
:1043D0003046FFF70BFF2060C0F800900446E4E78A
:1043E0003846BDE8F88300BFE8520000CD50000019
:1043F000735100002DE9F0470C464968236903EB2F
:104400006218A368074691464FEA621A08F101064E
:10441000B3420BDB3846FFF7DBFD054648B90246E1
:104420002A4B2B4840F2D911FDF746FC01315B00C5
:10443000EEE7002300F1140100F110021846534585
:1044400037DB20692AEAEA7A04F1140319F01F091C
:1044500001EB8A0103EB80002FD0C9F1200E8A46C0
:104460004FF0000C1A6802FA09F242EA0C024AF80C
:10447000042B53F8042B984222FA0EFCF2D8031BAB
:10448000153B23F00303043304F11502904238BFB7
:10449000042341F803C0BCF1000F01D008F102066B
:1044A000013E38462E612146FFF7D2FD2846BDE881
:1044B000F08742F8040F0133C1E7043953F8042BA5
:1044C00041F8042F9842F9D8EAE700BF6251000092
:1044D0007351000030B502690C69121B0ED100F156
:1044E0001403143103EB840001EB840150F8045DE4
:1044F00051F8044DA54203D005D30122104630BD2A
:104500008342F3D3FAE74FF0FF32F7E72DE9F84F94
:104510000C460646114620469046FFF7DBFF051E77
:1045200010D129463046FFF753FD30B93A4B0246C9
:1045300040F232213948FDF7BFFB0123C0E90435C1
:10454000BDE8F88FA4BF4346A0463046D8F8041013
:10455000A6BF1C4600250125FFF73AFD20B92E4BCA
:1045600002464FF41071E5E7D8F810702669C5606F
:1045700004F1140908F1140500F1140E05EB870C81
:1045800009EB860608F11002F246002159F8043BB7
:1045900052F804BF1FFA83F811FA8BF11B0CA1EB40
:1045A0000808C3EB1B4303EB28431FFA88F81914D0
:1045B0004E4548EA03434AF8043BE7D8331B153B12
:1045C00023F0030304331534A64238BF04231D44EB
:1045D00073449E462E4666450ED30CF10302521BD1
:1045E00022F00302033DAC4538BF00221A4452F8C2
:1045F000043D7BB10761A3E756F8048B11FA88F2FA
:10460000141404EB184492B242EA04424EF8042B0C
:104610002114E0E7013FEAE7625100007351000016
:104620002DE9F7438946012157EC106B9046FFF7BF
:10463000CFFC044630B90246254B264840F20A31E9
:10464000FDF73AFBC7F30A55C7F3130335BB002E3A
:10465000019328D068460096FFF782FD009900B3C9
:10466000019AC0F1200302FA03F30B43C2406361D5
:104670000192019BA361002B14BF0222012222613F
:10468000D5B1A5F233450544C9F80050C0F1350055
:10469000C8F80000204603B0BDE8F08343F480135F
:1046A000D5E76161E5E701A8FFF75AFD019B63616A
:1046B000012222612030E3E704EB8203A0F23240C2
:1046C000C9F800001869FFF72BFDC0EB4210DFE7C7
:1046D000625100007351000037B5A1FB02244CB9B0
:1046E0001146019200F07AF8019A054630B9284641
:1046F00003B030BD0C2202600025F8E72146FEF72A
:10470000DDF8F4E737B5002944D051F8043C0190B6
:10471000002BA1F10404B8BFE41800F06BFA1E4AA4
:104720000198136833B96360146003B0BDE830408A
:1047300000F066BAA34208D9256861198B4201BF0F
:1047400019685B6849192160EDE71A465B680BB18F
:10475000A342FAD911685518A5420BD12468214407
:104760005418A3421160E0D11C685B685360214477
:104770001160DAE702D90C230360D6E725686119D6
:104780008B4204BF19685B68636004BF49192160EC
:104790005460CAE703B030BDF80CFE1F70B50E4E72
:1047A0000C463168054611B900F0E8F93060214641
:1047B000284600F0E3F9431C0AD0C41C24F003048B
:1047C000A04207D0211A284600F0D8F9013001D1C3
:1047D0004FF0FF34204670BDFC0CFE1F2DE9F04168
:1047E000CD1C25F0030508350C2D38BF0C25002DF8
:1047F000074601DBA94205D90C233B600026304661
:10480000BDE8F0812E4E00F0F5F933681C4634BB4C
:1048100029463846FFF7C2FF431C04464DD1346891
:104820002646002E40D123683146384604EB030863
:1048300000F0A4F980453AD1216803356D1A25F0BE
:10484000030508350C2D38BF0C2529463846FFF7DF
:10485000A5FF01302BD023682B4423600EE0226893
:10486000521B1ED40B2A16D96119A342256018BF0A
:104870005960636808BF316062514B60384604F18B
:104880000B0600F0BDF926F00706231DF21AB6D07C
:104890009B1BA350B3E76268A3420CBF32605A600F
:1048A000ECE723466468B2E734467668B9E70C2340
:1048B0003B60384600F0A4F9A1E72560DEE700BFC1
:1048C000F80CFE1F2DE9F0478E689E4282460C468A
:1048D00090461F4638D88A8912F4906F32D02568E6
:1048E0000969A5EB0109656905EB450505EBD5757A
:1048F00001334B446D109D4238BF1D46530531D5E1
:104900002946FFF76BFF064650B90C23CAF8003062
:10491000A38943F04003A3814FF0FF30BDE8F08747
:1049200021694A46FDF7BCFFA38923F4906343F055
:104930008003A381266165614E44A5EB09052660CD
:10494000A5603E46BE4200D93E46206832464146FA
:1049500000F036F9A3689B1BA360236833442360EF
:104960000020DBE72A4600F051F906460028E1D195
:1049700021695046FFF7C6FEC7E7FFFF2DE9F04F5C
:1049800098468B891B069DB007460D4614460ED5EA
:104990000B6963B94021FFF721FF2860286120B926
:1049A0000C233B604FF0FF30D1E040236B610023CC
:1049B000099320238DF82930CDF80C803023DFF8BF
:1049C000A8818DF82A304FF0010923469A4613F842
:1049D000012B0AB1252AF9D1BAEB040B0BD05B46A7
:1049E000224629463846FFF76DFF013000F0AA80C5
:1049F000099A5A4409929AF80030002B00F0A280DC
:104A000000234FF0FF32CDE905230AF1010A049398
:104A100007938DF853301A935446052214F8011B5E
:104A20005148FFF785FA049AD8B9D00644BF20232D
:104A30008DF85330110744BF2B238DF853309AF86B
:104A400000302A2B15D0079A544600204FF00A0C4C
:104A5000214611F8013B303B092B4ED9B0B10792EA
:104A600014E0A0EB080309FA03F313430493A246EE
:104A7000D2E7039B191D1B680391002BBBBF5B4250
:104A800042F0020207930793B8BF049223782E2BBB
:104A90000CD163782A2B35D1039B1A1D1B68039216
:104AA000002BB8BF4FF0FF3302340593DFF8C8A0E6
:104AB000217803225046FFF73BFA40B14023A0EB98
:104AC0000A0003FA00F0049B03430134049314F832
:104AD000011B26488DF828100622FFF729FA002826
:104AE00038D0234B1BBB039B073323F0070308334A
:104AF0000393099B3344099367E70CFB02320C468E
:104B00000120A5E700230134059319464FF00A0C54
:104B1000204610F8012B303A092A03D9002BC5D0C2
:104B20000591C3E70CFB012104460123F0E703AB29
:104B300000932A460F4B04A93846FDF767FF421C35
:104B40000646D6D1AB895B063FF52CAF09981DB060
:104B5000BDE8F08F03AB00932A46064B04A9384604
:104B6000FEF7F8F9EBE700BFF4520000FE52000038
:104B70000D2A0000C5480000FA52000038B5064D65
:104B80000023044608462B60FDF756F9431C02D16A
:104B90002B6803B1236038BD000DFE1F82B001B940
:104BA00001A942B14BB113780B601278101E18BFE7
:104BB000012002B070471046FBE76FF00100F8E7F4
:104BC000884210B501EB020402D98442234607D87B
:104BD000431EA14208D011F8012B03F8012FF8E77A
:104BE000024401468A4200D110BD13F8014D02F87B
:104BF000014DF7E7014800F045B800BF040DFE1F66
:104C0000014800F040B800BF040DFE1F2DE9F0413F
:104C1000804614460E4621B9BDE8F0411146FFF723
:104C2000DDBD2AB9FFF76EFD25462846BDE8F081B7
:104C300000F02AF88442074602D8B4EB500F12D88D
:104C400021464046FFF7CAFD05460028EDD0BC428C
:104C50002246314628BF3A46FDF722FE31464046FD
:104C6000FFF750FDE1E73546DFE749B1FF2A85BF91
:104C70008A2303600A704FF0FF3098BF012070470D
:104C8000084670477047704751F8043C181F002BC6
:104C9000BCBF0B58C01870474FEA410C7FEA6C5CF0
:104CA00002D150EA013C0AD14FEA430C7FEA6C5C26
:104CB00002D152EA033C02D14FF0000070474FF09E
:104CC000010070474FEA410212F5001215D211D5CA
:104CD0006FF47873B3EB625212D94FEAC12343F0F9
:104CE000004343EA505311F0004F23FA02F018BF7B
:104CF000404270474FF00000704750EA013005D144
:104D000011F0004008BF6FF0004070474FF0000006
:104D1000704700BF4275696C7420776974682052CF
:104D2000656E6573617320416476616E63656420AE
:104D3000466C657869626C6520536F667477617242
:104D400065205061636B6167652076657273696F7A
:104D50006E20332E352E3000332E352E30000000DD
:104D600000000503F8B500BFF8BC08BC9E467047BC
:104D7000F8B500BFF8BC08BC9E4670475465726D1C
:104D8000696E616C00FFFFFF0000000000005454DA
:104D9000522052454747455300FFFFFF3031323321
:104DA000343536373839414243444546256400009E
:104DB000436F6E66696775726174696F6E20436FC9
:104DC0006D706C6574656400252E3366000000000C
:104DD000416363656C20783A202573200A00000047
:104DE000416363656C20793A202573200A00000036
:104DF000416363656C207A3A202573200A00000025
:104E00004779726F20783A202573200A000000004D
:104E10004779726F20793A202573200A000000003C
:104E20004779726F207A3A202573200A000000002B
:104E300054656D7065726174757265207A3A2025CB
:104E400073200A0002000000A08601006800000034
:104E50000102000102030000000000000000000049
:104E600041100000000000006C4E00000101041021
:104E70000FFFFFFF290000007C4E000000400000F3
:104E80000500000000400000060000000040000097
:104E90000A00000004000000000100000000010002
:104EA00008010000000001000901000000000100ED
:104EB0000A010000000C011A08020000000C011A8F
:104EC00009020000000C011A0A020000000C011A7D
:104ED0000B020000000001090C02000000000109A3
:104EE0000D020000000C011A0E020000000001007B
:104EF00000030000040000000403000000000000A4
:104F00000B030000000000000C0300000400000080
:104F10000004000000040107010400000400000078
:104F20000304000005000000040400000004010761
:104F300008040000040000000D040000040000004C
:104F40000305000004000000040500000004010740
:104F50000B050000000401070C0500000400000020
:104F6000030600000000000004060000000000002E
:104F700005060000040000000B060000040000000D
:104F80000008000004000000010800000400000008
:104F900002080000040000000308000004000000F4
:104FA00004080000040000000508000005000000DF
:104FB00006080000040000000709000004000000CB
:104FC000080900006D006E006F0070000000000016
:104FD00000000000000000000000000000000000D1
:104FE00000000000000000000000000000000000C1
:104FF00000000000000000000000000000000000B1
:1050000000000000000000000000000000000000A0
:105010000000000000000000000000000000000090
:105020000000000000000000000000000000000080
:105030000000000000000000000000000000000070
:105040000000000000000000000000000000000060
:105050000000000000000000000000000000000050
:105060000000000000000000000000000000000040
:105070000000000000000000000000000000000030
:10508000000000000100020008001000494E460028
:10509000696E66004E414E006E616E003000303128
:1050A000323334353637383941424344454600308F
:1050B00031323334353637383961626364656600BE
:1050C000496E66696E697479004E614E00524545BD
:1050D0004E54206D616C6C6F6320737563636565FE
:1050E000646564002F6D6E742F776F726B737061DF
:1050F00063652F776F726B73706163652F474343EE
:105100002D31302D706970656C696E652F6A656E22
:105110006B696E732D4743432D31302D7069706577
:105120006C696E652D3333385F3230323131303156
:10513000385F313633343531363230332F73726362
:105140002F6E65776C69622F6E65776C69622F6C64
:105150006962632F7374646C69622F64746F612E6B
:10516000630042616C6C6F63207375636365656493
:105170006564002F6D6E742F776F726B737061634F
:10518000652F776F726B73706163652F4743432D93
:1051900031302D706970656C696E652F6A656E6B54
:1051A000696E732D4743432D31302D706970656CE6
:1051B000696E652D3333385F3230323131303138FA
:1051C0005F313633343531363230332F7372632FDB
:1051D0006E65776C69622F6E65776C69622F6C699A
:1051E00062632F7374646C69622F6D707265632ED5
:1051F0006300FFFFFFFFFFFF0080E03779C34143FB
:10520000176E05B5B5B89346F5F93FE9034F384D2C
:10521000321D30F94877825A3CBF737FDD4F1575D8
:10522000000000000000F03F0000000000002440EB
:1052300000000000000059400000000000408F40C6
:10524000000000000088C34000000000006AF84031
:105250000000000080842E4100000000D012634155
:105260000000000084D797410000000065CDCD41CB
:10527000000000205FA00242000000E876483742AC
:10528000000000A2941A6D42000040E59C30A2424A
:105290000000901EC4BCD64200003426F56B0C43BF
:1052A0000080E03779C3414300A0D8855734764366
:1052B00000C84E676DC1AB43003D9160E458E143C7
:1052C000408CB5781DAF154450EFE2D6E41A4B443C
:1052D00092D54D06CFF08044F64AE1C7022DB54481
:1052E000B49DD9794378EA44050000001900000014
:1052F0007D000000232D302B2000686C4C0065667B
:1053000067454647004300504F534958002E000060
:105310002020202020202020202828282828202065
:10532000202020202020202020202020202020207D
:1053300088101010101010101010101010101010F5
:1053400004040404040404040404101010101010D5
:1053500010414141414141010101010101010101AE
:1053600001010101010101010101011010101010E2
:10537000104242424242420202020202020202027F
:1053800002020202020202020202021010101020A7
:10539000000000000000000000000000000000000D
:1053A00000000000000000000000000000000000FD
:1053B00000000000000000000000000000000000ED
:1053C00000000000000000000000000000000000DD
:1053D00000000000000000000000000000000000CD
:1053E00000000000000000000000000000000000BD
:1053F00000000000000000000000000000000000AD
:10540000000000000000000000000000000000009C
:10541000000000000000000000000000000000008C
:10542000000000000000000000000000000000007C
:10543000000000000000000000000000000000006C
:10544000000000000000000000000000000000005C
:10545000000000000000000000000000000000004C
:10546000000000000000000000000000000000003C
:045470000000000038
:105474000400FE1F000000003054000050540000DF
:1054840010540000000000000000000000000000B4
:105494000000000000000000000000000000000008
:1054A40000000000000000000000000000000000F8
:1054B40000000000000000000000000000000000E8
:1054C40000000000000000000000000000000000D8
:1054D4000000000043000000000000000000000085
:1054E40000000000000000000000000000000000B8
:1054F4000000000043000000000000000000000065
:105504000000000000000000000000000000000097
:105514000000000043000000000000000000000044
:105524000000000000000000000000000000000077
:105534000000000043000000000000000000000024
:105544000000000000000000000000000000000057
:105554000000000043000000000000000000000004
:105564000000000000000000000000000000000037
:1055740000000000430000000000000000000000E4
:105584000000000000000000000000000000000017
:1055940000000000430000000000000000000000C4
:1055A40000000000000000000000000000000000F7
:1055B400000000006B4C00009D4B00000000000048
:1055C4000F5300000D530000F9520000F95200007F
:1055D400F9520000F9520000F9520000F95200009B
:1055E400F9520000F9520000F9520000FFFFFFFFDA
:1055F400FFFFFFFFFFFFFFFFFFFF0000010041531C
:1056040043494900000000000000000000000000C1
:1056140000000000000000000000000000004153F2
:1056240043494900000000000000000000000000A1
:105634000000000000000000000000000000000066
:0856440025050000010500002E
:020000040100F9
:10A15000FFFFFFFFFFFFFFFFFFFFFFFFFFFFFFFF0F
:0400000300001E7962
:00000001FF
